:020000040800F2
:10000000A809002089020008E3400008613B0008BD
:10001000E1400008D5210008054B00080000000061
:10002000000000000000000000000000E7400008A1
:100030002523000800000000E5400008E940000812
:10004000A3020008A3020008A3020008A3020008FC
:10005000A3020008A3020008A3020008A3020008EC
:10006000A3020008A3020008A3020008A3020008DC
:10007000A3020008A3020008A3020008A3020008CC
:10008000A3020008A3020008A3020008A3020008BC
:10009000A3020008A3020008A3020008A3020008AC
:1000A000A302000879410008A3020008A302000887
:1000B000A3020008A3020008C5430008A302000829
:1000C000A3020008A3020008A3020008A30200087C
:1000D000A3020008714A0008A3020008A302000856
:1000E000A3020008A3020008A3020008A30200085C
:1000F000A3020008A3020008A3020008A30200084C
:1001000000000000A3020008A3020008A3020008E8
:100110000000000000000000A3020008A302000885
:10012000A3020008A3020008A3020008A30200081B
:10013000A3020008A3020008A3020008A30200080B
:10014000A3020008A3020008A3020008A3020008FB
:10015000A3020008A3020008A3020008A3020008EB
:10016000A3020008A3020008000000000000000035
:10017000000000000000000000000000000000007F
:10018000A3020008A3020008000000000000000015
:10019000A3020008A3020008000000000000000005
:1001A000000000000000000000000000000000004F
:1001B000A30200080000000000000000A3020008E5
:1001C000A302000800F002F800F04FF80AA090E83F
:1001D000000C82448344AAF10107DA4501D100F002
:1001E00044F8AFF2090EBAE80F0013F0010F18BF80
:1001F000FB1A43F00103184704B5000024B50000C2
:10020000103A24BF78C878C1FAD8520724BF30C842
:1002100030C144BF04680C60704700000023002414
:1002200000250026103A28BF78C1FBD8520728BF06
:1002300030C148BF0B60704766290BF0D4800020A6
:1002400070471FB50BF01DF800F07AFC0400002089
:1002500000210AF02DF9401C6060002000210AF006
:1002600011F9E0601FBD10B510BD00F095FD1146FD
:10027000FFF7E7FF09F036FC01F038F803B4FFF7A9
:10028000F2FF03BC01F07CF80948804709480047A9
:10029000FEE7FEE7FEE7FEE7FEE7FEE7FEE7FEE736
:1002A000FEE7FEE704480549054A064B7047000093
:1002B00069410008C5010008A8030020A809002022
:1002C000A8050020A805002053EA020C00F0698070
:1002D0002DE9F04B4FF00006002B1FBFB3FA83F55A
:1002E00003FA05F424FA05F65E4012BF1643B2FA8B
:1002F00082F502FA05F4C5F120051EBF22FA05FCBD
:1003000044EA0C04203556EA044C4FEA144418BF62
:10031000641C4FF000084FF00009904271EB030C91
:1003200039D3002919BFB1FA81F701FA07F6B0FAFB
:1003300080F700FA07F6C7F120071EBF20FA07FC76
:1003400046EA0C062037B6FBF4FCA7EB0507103F86
:1003500007F01F0BCBF120060CFA0BFB2CFA06F66C
:1003600044BFB3460026202FA4BF5E464FF0000BCB
:100370005BEA060C08BF4FF0010B19EB0B09ABFB56
:10038000027C48EB0608C01B06FB02CC0BFB03CC2F
:1003900071EB0C01C1E70B46024641464846BDE8F9
:1003A000F08B13B54FF000004FF00001AFF3008069
:1003B000BDE81C40704710B54C1084EA530404D5C6
:1003C0004042C1F1000138BF491E1B4204D55242D0
:1003D000C3F1000338BF5B1EFFF776FF14F0804FB8
:1003E00004D04042C1F1000138BF491E14F0004F53
:1003F00004D05242C3F1000338BF5B1E10BD0000A1
:100400000FB41CB5074B06AA7B44694600900598BB
:1004100000F02BFB0020694600F03AFB1CBC5DF8A5
:1004200014FB0000850600002DE9F0474FF0000A9C
:1004300089460446C0F820A02046E1688847002885
:1004400076D0252806D0D4E901219047206A401CA7
:100450002062F1E7E168204600258847C4F81CA027
:1004600006460027C4F818A02A2E09D0304605F009
:1004700056FA38B304EB8708303EC8F8186019E024
:1004800059F8041B204604EB87029161E168884714
:10049000012F064618D1E069002820DA25F0200552
:1004A0001DE0D8F8180000EB800006EB4000303863
:1004B000C8F818002046E1688847064605F02FFA7C
:1004C0000028EED1012F0AD02E2E08D12046E16857
:1004D00088477F1C0646022F45F02005C4DBA06933
:1004E000002803DA404245F00105A061E80701D089
:1004F00025F01005B6B1A6F14100192802D8203622
:1005000045F400654A463146204625604D46FFF7D2
:1005100093FE58B1012806D0ED1D25F0070000F12B
:10052000080989E704E005F1040985E730468AE710
:10053000206ABDE8F08710B5431C02E010F8011BEB
:1005400071B18107FAD14FF0013202C88C1A8C4385
:1005500014EAC211F9D0C01A0A0603D0C01E10BD99
:10056000C01A10BD0A0401D0801E10BD0902FCD0C3
:10057000401E10BD10B5203AC0F00B80B1E81850F5
:10058000203AA0E81850B1E81850A0E81850BFF47D
:10059000F5AF5FEA027C24BFB1E81850A0E818501C
:1005A00044BF18C918C0BDE810405FEA827C24BF70
:1005B00051F8043B40F8043B08BF7047D20728BFFE
:1005C00031F8023B48BF11F8012B28BF20F8023B4D
:1005D00048BF00F8012B70474FF0000200B51346EA
:1005E00094469646203922BFA0E80C50A0E80C5053
:1005F000B1F12001BFF4F7AF090728BFA0E80C5004
:1006000048BF0CC05DF804EB890028BF40F8042BFC
:1006100008BF704748BF20F8022B11F0804F18BF69
:1006200000F8012B704770477047704710B500F015
:100630008BFA006810BD10B5044600F085FA04601E
:1006400010BD70472DE9FF4F0C461E464FF0FF3797
:100650008BB0D2E90001DDF860800A908A46C1F3D0
:100660000A5505B93D46002108464FF00000BAF191
:10067000000F00F4400005DA00EB80004FF4400169
:1006800001EA50004FEA9059B9F1010F00DDB94677
:100690000A9850EA4A000ED044F61050A5F2FF35F1
:1006A00045432F14B8F1000F1ED07542291E1EDDE0
:1006B000C9F100021CE0B8F1010F4FF0000001D0B9
:1006C000302103E0F24305E02154401CB042FBDB43
:1006D00030460022002121540B99C1F80880C1E95D
:1006E00000200FB0BDE8F08FBD1B6D1CDEE74A4651
:1006F00000DA694206A800F0D9FA06AB93E80700D1
:1007000003AB83E8070050460A9901F08BF88DE8A7
:100710000700A0F500501F3800900398002D0ADD57
:1007200042F21F014A460844002303A90390684689
:1007300001F036FB09E0A0F500504A461F380023BF
:1007400003A90390684601F055FB8DE807000004FB
:10075000000C03D04FF0FF30410800E01046B8F124
:10076000000F03D00022009215461EE0751E05D42E
:1007700000F0EEF9303262556D1EF9D5B346012214
:10078000084302D000227F1C04E02078302801D1E9
:1007900000227F1E002A099784D01DE0112D07DA60
:1007A00000F0D6F9303262556D1C50EA0102F5D1E5
:1007B000084302D00098C8B10EE00021681E05E091
:1007C000235C625C63542254401E491C8142F7DB67
:1007D000AB46A81B401E0990002004F80B000B98A4
:1007E000099AC0F80880C0E9002B7AE711264FF07B
:1007F000000857E72DE9F04F88460446D21D22F045
:10080000070191B0D1E90001CDE90A0104F07BF9BB
:1008100002460B98C00F01D02D2007E02068810709
:1008200001D52B2002E0202101EAC000032A099013
:1008300001D0072A05DB03464146204600F0D6F9E1
:100840000BE12078800601D5E06900E00620B8F1D0
:10085000650F814606D0B8F1660F18D0B8F1670F62
:1008600070D131E00020B9F1110F009001DB1123AC
:1008700001E009F101030AAA01A90CA8FFF7E2FEB1
:10088000DDE90C70002609F10105834647E00120EF
:100890004B4600904FF000470AAA01A90CA8FFF7A9
:1008A000D1FEDDE90DB00C995D46002610B909F1C5
:1008B00001000D18B9EB050003D4C0F1FF3609F1B2
:1008C0000105A5EB09002BE0B9F1010F01DA4FF0AA
:1008D00001090020B9F1110F0090484601DD1123F4
:1008E00000E003460AAA01A90CA8FFF7ABFEDDE968
:1008F0000C704D4600268346207800070AD4AB458D
:1009000000DA5D4601A8012D04DD411911F8011C32
:10091000302907D04F4502DA17F1040F04DA01201D
:1009200082460FE06D1EEEE7002F02DCED1B3E4419
:1009300003E0781CA84200DD7D1CB81B00F1010A11
:100940004FF000472078000703D4AA4501DB4FF0A1
:10095000FF3A0021B7F1004F0DF143088DF8431025
:1009600024D002202B23002F01DA7F422D230A21DD
:10097000021EA0F1010000DC5FB197FBF1FC97FBC8
:10098000F1F201FB1C7C17460CF1300C08F801CD8C
:10099000EEE7A8F1010003702188090501D5452182
:1009A00000E06521A0F1010800F8011C09980FA9D9
:1009B000A1EB0807FF1D00B10120411901EBEA700E
:1009C000A1693844081A401EA0612078C00602D4EC
:1009D0002046AFF30080099828B1D4E9012190475F
:1009E000206A401C20622078C00622D52046AFF342
:1009F00000801EE0002E04DBB34502DD01A8805D0F
:100A000000E03020D4E901219047206A401C206298
:100A1000761CAAF101005FEA000A0AD100F090F802
:100A2000C0680168405CD4E901219047206A401CFD
:100A30002062281EA5F10105DCDC07E0D4E90121D4
:100A400018F8010B9047206A401C2062381EA7F15D
:100A50000107F3DC2046AFF30080032011B041E62C
:100A600001694A1C02610878704700B58FB0CDE972
:100A700001310021059105497944CDE90310114662
:100A80006846FFF7D1FC0FB000BD0000E5FFFFFF97
:100A90000A6802F8010B0A60704700000FB40023D7
:100AA00000B589B00CA900910B99CB60214B7B4418
:100AB0000693214B7B44079304236FF00042CDE95A
:100AC00001321E4A7A446B460892024600200AF020
:100AD000ECFC09B05DF814FB70B506464FF0FF3032
:100AE00015460C46324686B00091CDE901016946B3
:100AF0000020049004A8FFF7D1FF024604982118B3
:100B000025B108B1084600E0204628600498002876
:100B10000DD0002A02DD0098884208D03246081B1A
:100B200069460094CDE9010404A8FFF7B7FF06B0B9
:100B300070BD0000BB010000D301000013010000E4
:100B400000487047640300200048704744030020B9
:100B500030B5B0F10A024FEA900E71F100034EEA8F
:100B6000817EB0EB0E0061EB91014FEA101E4EEA60
:100B7000017E10EB0E0041EB11114FEA102E4EEAF0
:100B8000016E10EB0E0041EB11214FEA104E4EEAC0
:100B9000014E10EB0E0041EB1141401841F10001F4
:100BA0004FEAD00040EA41704FEAD10110EB8005D6
:100BB0004FEA810444EA907444EB01046D1944EB5C
:100BC0000404521BA3414FF0000348BF0A3200D572
:100BD00030BD401C41F1000130BD10B5044600F0AD
:100BE00001F90068005D00F0010010BD2DE9F04141
:100BF0001F46044603260168072A01F4006004DB4F
:100C000008B116A505E016A503E008B115A500E09A
:100C100015A521F010002060A069C01EA0610FB1D1
:100C2000401EA0612046AFF300804FB1D4E90121FE
:100C300038469047206A401C2062C01C206206E0B3
:100C4000206AFAE7D4E9012115F8010B9047761ED6
:100C5000F8D22046AFF30080BDE8F0814E414E004F
:100C60006E616E00494E4600696E6600426842B190
:100C7000016811F8013B23B1521EC0E90012184669
:100C800070470121C160881E704742685AB1C3682D
:100C9000016843B983688B4205D0491E521CC0E9E4
:100CA0000012002070474FF0FF3070472DE9F047E9
:100CB000814616468AB0354878440DC88DE80D0047
:100CC00032487844801C03AC0DC884E80D0041F61E
:100CD0009B300844372190FBF1F290FBF1F5A5F130
:100CE000800501FB12041B3C02D56442012000E098
:100CF0000020DFF898A080460027FA44AAF1BE0A37
:100D00000EE0E0070AD03246684607EB47010123B0
:100D10000AEB810101F06EF88DE8070064107F1C7A
:100D2000002CEED1194F7F44AE3F19E0E80715D0F3
:100D300007EB04100DF1180A90E80E008AE80E0087
:100D4000C068F04201D1981908903246012306A9E3
:100D500003A801F04FF803AB83E807006D10641C93
:100D6000002DE3D14FF0010332466946B8F1000F80
:100D700003A802D001F014F801E001F03BF8C9E942
:100D80000001C9F808200AB0BDE8F08728AA0000D1
:100D900000487047440300207546FFF7F9FFAE4650
:100DA00005006946534620F00700854618B020B577
:100DB000FFF778FABDE820404FF000064FF000073B
:100DC0004FF000084FF0000B21F00701AC46ACE8F3
:100DD000C009ACE8C009ACE8C009ACE8C0098D4660
:100DE0007047000010B5FFF7ABFE001D10BD00BF3F
:100DF000C19600002DE9FF4F06468BB00878FF280A
:100E000006D0491C2D2805D000244FF0000908E029
:100E100000200CE00124F8E709EB8903491C00EBF2
:100E200043090878FF28F7D114B1C9F100008146C1
:100E3000107800252C46AA4629462D2801D02B28BB
:100E400004D1521C2D2813D0002082468B461078E6
:100E5000FF280FD04FF0000C0A21521CA5FB01788F
:100E600004FB018105FB0C11C5194BEB0104EEE7F6
:100E70000120EAE7002108464FF00000BAF1000F18
:100E800002D000EB80004008C0F38157012F01DD44
:100E90004FF0FF370E9955EA040009EB01080BD01B
:100EA0004FF0020918F5FA7F16DA4FEACA70002FE0
:100EB000706008DD012007E04FEACA70C6E900B0A3
:100EC0000FB0BDE8F08F00203060FFF73DFEC0F8A6
:100ED00000901821084616E0B8F5FA7F18DD002FBB
:100EE00002DAF748784401E0F6487844D0E9001087
:100EF000C6E9001040EACA707060FFF725FEC0F82E
:100F00000090142108460FB0BDE8F04F0AF0C3B9B5
:100F1000002108464FF00000B8F10001099002DA04
:100F2000C7F1000200E03A4601DAC8F1000106A864
:100F3000FFF7BCFE06AB93E8070003AB83E80700AE
:100F400044F23E005BEA04010090584604D144F2AA
:100F50001E012C465D460091210C0904014306D177
:100F60000099240444EA15442D041039009104F03A
:100F70007F41014306D10099240244EA15642D0201
:100F80000839009104F07041014306D10099240111
:100F900044EA15742D01091F009104F040410143FA
:100FA00006D10099A40044EA9574AD00891E009111
:100FB00004F00041084304D100986D196441401EBB
:100FC00000904FF001033A466846B8F1000FCDE9B2
:100FD000014503A902DD00F022FF01E000F0F5FE6B
:100FE000BAF1000F04460D4601D084F00044002100
:100FF00008464FF00000099940F2FF77484010F092
:101000000C0F07D124F00040284303D0C4F30A504A
:10101000B84212D1FFF798FDC0F80090C4F30A500F
:10102000B8420AD1A8487844D0E90010C6E90010B7
:1010300004F000410843706042E7C6E900543FE70E
:101040002DE9FF4F1F464FF0000A4FF0FF3845468D
:1010500091B0D7E90146CDF83CA0FFF771FDC0681B
:101060000168405C1090B96912986D1C8847396A14
:10107000814688470028F6D1B9F1FF3F0AD0002EFB
:1010800024F4D06411DDB9F12B0F08D0B9F12D0F84
:101090000BD102E0404615B013E744F48064B9690F
:1010A00012986D1C8847761E8146600504A901D5FB
:1010B0002D2000E02B20002E01F1010B0DF1300856
:1010C0008DF810003FDDB9F1690F08D0B9F1490F73
:1010D00005D0B9F16E0F02D0B9F14E0F1CD13B46CD
:1010E00001A8009580E85002DDE912126FF00200BD
:1010F0000AF0DFF9C11CCED10EE0B96912986D1C5F
:10110000884781461398761E44F4007405600F9852
:10111000401C002E0F9016DDB9F1300FEDD0B9F163
:10112000780F02D0B9F1580F0DD10F9801280AD1CC
:101130003B46CDE90054DDE91212001F02960AF089
:10114000B6F9C11CA7D1109989453ED144F080045D
:1011500006E01399681CAAF1010A44F400740860BF
:10116000B9696D1C1298761E884730288146F0D0E8
:101170002BE01099894505D1200603D4761E44F052
:10118000800418E0484604F0CAFB08B3761E0DF14F
:1011900023018B4544F4007408D2A9F130000BF808
:1011A000010B200607D5AAF1010003E0200602D4B6
:1011B0000AF101008246A00502D51399681C086057
:1011C000B96912986D1C88478146002ED1DC53E026
:1011D000002E51DDB9F1650F02D0B9F1450F4BD1A9
:1011E000A00549D5B9696D1C1298761E24F4407487
:1011F0008847002E81460CDD2B2804D0B9F12D0F35
:1012000007D144F48074B96912986D1C8847761E22
:101210008146E00501D52D2100E02B2108F8011BB6
:10122000CDF8008021E0761E0DF13901884544F4A7
:1012300000740CD2A9F1300010F0FF0088F8000013
:1012400002D10099884509D908F1010806E0E005B6
:1012500001D51E4801E042F20F708246B96912982A
:101260006D1C8847814613980560002E04DD4846B2
:1012700004F055FB0028D6D1F96912988847FF2061
:1012800053468BF8000088F8000000200A900B906D
:1012900004AA0CA90AA8FFF7ADFDA00502D46FF0BF
:1012A0000100F8E614F0240F12D0E0071CD13868D2
:1012B000DDE90A12031D3B600068C0E9001213E07B
:1012C0003CA800002EA80000F2A60000F1D8FFFF05
:1012D0000AA9684604F010FBE00705D13868009AB7
:1012E000011D3960006802602846D4E610B5044646
:1012F000AFF300802046BDE81040FEF7BFBF0000FE
:101300004FF0013C50F8042B51F8043B9A4221D194
:10131000A2EB0C03934313EACC1317D150F8042B20
:1013200051F8043B9A4215D1A2EB0C03934313EA04
:10133000CC130BD150F8042B51F8043B9A4209D13D
:10134000A2EB0C03934313EACC13DBD04FF0000065
:10135000704700BFD01A01BAB1FA81F101F018014B
:1013600022FA01F0CB40C1F12001DBB2C0B2C01AB9
:101370002CFA01F3D11A914311EAC311E6D1704757
:1013800001491820ABBEFEE7260002002DE9FF4F01
:101390001F464FF03C0987B04FF00042DDE91410C2
:1013A00001F10108DDF858A002EA40500390002046
:1013B00005908346054604460490B969461E089880
:1013C0008847AAF1010A0290BAF1000F3BDD0298AA
:1013D0002E2815D0102100F017FA00282EDB4FF030
:1013E000010B0599014317D0B9F1000F0BDB4A46F9
:1013F000C11700F0F6F905430C43A9F1040905E013
:10140000012004900BE008B145F001050120059092
:10141000049820B9361D02E0049800B1361FB9695E
:10142000089808F101088847BBF1000FAAF1010AEA
:101430000290C9D00999C1F80080C5E702987028C8
:1014400008D0502806D0F96908988847BBF1000FEA
:1014500014D04FE0002002900120BBF1000F049057
:1014600009D0B969089808F101088847AAF101096B
:10147000B9F1000F07DCF969089888476FF001009F
:101480000BB0BDE8F08F2B2804D02D280CD14FF0E5
:10149000FF300490B969089808F101088847A9F15C
:1014A0000109B9F1000FE6DD411CE4D00A2100F08A
:1014B000ABF90028DFDB029908F1010801EB81019B
:1014C00000EB41000290B969089888470A2100F0B2
:1014D0009BF9099AA9F10109B9F1000FC2F800803E
:1014E00001DD0028E7DAF96908988847049902982D
:1014F00000FB016655EA040004D004F040410900F5
:1015000002D006E0039898E0A40044EA9574AD0088
:10151000B61E04F00041080002D16D196441761E28
:10152000159810F0240F03D04FF00B095C4803E02E
:101530004FF028096FF07D008246564507DAAAEB86
:1015400006018944B9F1410F01DD4FF04109012045
:101550000021A9F1010200F044F9024628400B469F
:101560002140084301D0012100E00021501E0291DA
:1015700043F1FF3128402140084301D0012000E021
:1015800000200299834651EA0B014FD00021084602
:101590004FF00000039900F4400039B100EB8000E7
:1015A0004FF4400100EBD07001EA60008015012883
:1015B00002DD4FF0FF3000E013D0401C36D002981F
:1015C00060B3BBF1000F0CD14A460120002100F0AE
:1015D00008F928402140084301D0012000E0002004
:1015E000E0B101204A46002100F0FBF80346401913
:1015F0000A4661412D1A8C4111D3B9F1400F09DD22
:10160000159810F0240F02D0AAF1340603E0AAF1D5
:10161000170600E0761C00254FF0004406E05B1E34
:1016200042F1FF3220EA030521EA0204CAF1010077
:10163000B04206DA1B49039808430190002000904D
:101640000EE0039AC4F3D321E80A0A43164940EA9C
:1016500044500A433146CDE90002684604F055F98A
:10166000159810F0240F0BD01598C00715D13868C5
:10167000DDE90012031D3B600068C0E900120CE0C8
:1016800002A8694604F038F91598C00705D13868F2
:10169000029A011D3960006802604046F0E60000D1
:1016A00002FCFFFF0000F07F0000F03F2DE9FF4F3C
:1016B00092461D4685B04FF00041DDE9124BDDE951
:1016C00014727F1E01EA4B50414940F0FF4940EA45
:1016D0000108002122F020004928049102D04E2860
:1016E00028D04CE03BA0012607C88DE80700A96977
:1016F0000698641C88477F1E014606D41DF8060024
:1017000018B121F0200181420BD0E9690698884781
:10171000032E34D0082E32D06FF0010009B0BDE89E
:10172000F08F761C032E01D0082EE0D1601CCAF881
:101730000000DCE7A9690698641C88477F1E2AD44C
:1017400020F02000412826D1A9690698641C88470A
:101750007F1E20D420F020004E281CD1A9690698B5
:10176000641C88477F1E48F4002849F48009CAF8A1
:10177000004001D4282806D0E969069888475FEA26
:10178000CB7012D022E0A9690698641C88477F1E9E
:1017900001D4002803DAE96906988847BCE72928BC
:1017A000F1D1641CCAF80040E9E71BF0240F07D010
:1017B00028680499031D2B600068C0E9001805E043
:1017C0002868021D2A600068C0F800902046A5E73E
:1017D0000000F07F494E46494E4954590000000030
:1017E0007047B2F120030AD5C2F1200301FA02F1D9
:1017F00020FA03F300FA02F041EA0301704700FA0D
:1018000003F14FF0000070473A2800D2303820F042
:101810002002412A01D3A2F13700884201D34FF0C0
:10182000FF3070475FEA400C08BF91F0000F4FEAAD
:101830008C234FEAC12243EA51514FEA1C5018BF92
:1018400000F5F0404FEA300018BF41F000415FEA78
:101850006C5C00F02980BCF1FF3F08BF40F0804085
:101860007047130C06BF12044FF0100C4FF0000C21
:10187000130E04BF12020CF1080C130F04BF120167
:101880000CF1040C930F04BF92000CF1020CD30F67
:1018900004BF52000CF1010C11464FF00002A0F100
:1018A0001F00A0EB0C00704711F0004F08BF7047FD
:1018B00031F000413FF4D5AF0B0C06BF09044FF0E7
:1018C000100C4FF0000C0B0E04BF09020CF1080CB9
:1018D0000B0F04BF09010CF1040C8B0F04BF89002E
:1018E0000CF1020CCB0F04BF49000CF1010CCCF140
:1018F0002003A0EB0C0022FA03F302FA0CF241EAF7
:10190000030100F10100704720F07F4C80EA0300E2
:1019100023F07F47ACEB070303F57C5300F0004056
:1019200003F1FF032DE980494FEA154B09B44FEA53
:10193000144325EA0B4E24EA03480FF2042606EB73
:10194000132749083E785FEA320203FB0667C7F5B2
:10195000000707FB06F64FEA54374FEAD64606F172
:10196000020607FB066CCCF1005C4FEA1C472CEA30
:10197000074C07FB06F40CFB06F504EB15464FEA93
:10198000961634BF00204FF000404FEAD13706FBD7
:1019900007FC4FEA1C4C0CFB0BF7D21B03FB0CF7AC
:1019A00061EB07010CFB0EF7B0EB074072EB17423F
:1019B0000CFB08F734BFA2EB0742B2EB074261EB26
:1019C00017414FEA0C444FEA910706FB07FC4FEA28
:1019D0001C4C0CFB0BF7B0EBC74072EB573203FB10
:1019E0000CF734BFA2EBC742B2EBC74261EB5731F1
:1019F0000CFB0EF7B0EBC70072EB57720CFB08F74D
:101A000034BFA2EBC702B2EBC70261EB5771039F71
:101A10004FEA816141EA921104EBCC044FEAD137DD
:101A20004FEA826206FB07FC42EA90124FEA8060AE
:101A30004FEA1C4C0CFB0BF7D21B03FB0CF761EBC2
:101A400007010CFB0EF7B0EB074072EB17420CFBE3
:101A500008F734BFA2EB0742B2EB074261EB174134
:101A60004FEA8C554FEA910704EB9C2406FB07FCD8
:101A70004FEA1C4C0CFB0BF7B0EBC74072EB573234
:101A800003FB0CF734BFA2EBC742B2EBC74261EBDA
:101A900057310CFB0EF7B0EBC70072EB57720CFB23
:101AA00008F734BFA2EBC702B2EBC70261EB577174
:101AB00015EB4C254FEA816141EA92114FEA8262AF
:101AC0004FEAD13742EA901206FB07FC44F10004CA
:101AD0004FEA80604FEA1C4C0CFB0BF7D21B03FB58
:101AE0000CF761EB07010CFB0EF7B0EB074072EB54
:101AF00017420CFB08F734BFA2EB0742B2EB0742D8
:101B000061EB174115EB1C154FEA813141EA924117
:101B10004FEA823242EA90424FEA80304FEA0C7636
:101B200044F1000448EA03434EEA0B484FF0000E2C
:101B3000B2EB080C71EB030724BF624639464EEB4B
:101B40000E0E4FF0000B0018524149414BEB0B0BAE
:101B5000B2EB080C71EB03077BF1000B24BF62466C
:101B600039464EEB0E0E4FF0000B00185241494122
:101B70004BEB0B0BB2EB080C71EB03077BF1000B8B
:101B800024BF624639464EEB0E0E51EA020718BFDB
:101B900046F0010616EB0E7655F1000254F10001F5
:101BA00003D5BDE88901BDE80088BDE88901BDE82D
:101BB0000048B619524141EB0101A3F101037047FE
:101BC00080807F7E7D7C7B7A79787776767574737A
:101BD000727171706F6E6E6D6C6C6B6A6A69686839
:101BE000676666656464636362616160605F5F5ECF
:101BF0005E5D5D5C5C5B5B5A5A5959585857575645
:101C000056555555545453535252525151505050A9
:101C10004F4F4F4E4E4D4D4D4C4C4C4B4B4B4A4AFB
:101C20004A4949494848484747474746464645453F
:101C30004544444444434343434242424241414178
:101C400046EA0646A3F570534FEA164646EA425660
:101C50004FEAD22242EA415210B54FEAD121A3F114
:101C6000010300F02FF820F0004000F1020C00F01A
:101C7000004701EB00501146BCF5006F40EA070039
:101C800000D210BDBAF1000F0AD01CB503B44FF05A
:101C900004004FF004014FF000000FBCBDE81040FD
:101CA0004FF00001BBF1010FB9BF04484FF0FF3105
:101CB0000348002140EA070010BD00BFFFFFEF7F8F
:101CC0000000F07F002B9C4630D477002BD01CB551
:101CD0004FEA370703B44FF010004FF01001BAF18C
:101CE000000F06D0BCF1000FDCBF40F0080040F050
:101CF00008014FF000000FBCBDE810400BF1010BD4
:101D0000BBF1010F08BF5FEA170722BF12F1010202
:101D100011F101014FF0004143F1000300F00040D8
:101D200043EA00007047F9D35708D0E746EA064671
:101D300013F1400F4FEA16461FDD13F1200FDFBFEE
:101D400016430A46002120335B42BED0C3F1200770
:101D500046EA064602FA07F74FEA164646EA07063B
:101D6000C3F1200722FA03F201FA07F721FA03F17F
:101D70004FF0000342EA0702A7E746EA020646EAF6
:101D800006464FEA164646EA0106BCBF46EA064644
:101D9000360C4FF000034FF000024FF0000194E7C3
:101DA0002DE9804C9A46934670B491E8380007C8F4
:101DB00031EA400C48BF34EA430C03D5FFF7A4FDD9
:101DC000FFF780FFF0BCBDE8008C2DE9804C9A46FF
:101DD000934670B491E8380007C831EA400C48BF18
:101DE00034EA430C03D5FFF78FFDFFF729FFF0BC62
:101DF000BDE8008C2DE9804C9A46934670B491E87A
:101E0000380007C810F0804F08BF13F0804F03D18F
:101E100000F01AF8FFF756FFF0BCBDE8008C2DE982
:101E2000804C9A46934670B491E8380007C810F089
:101E3000804F08BF13F0804F03D100F005F8FFF783
:101E4000FFFEF0BCBDE8008C20F07F4780EA030075
:101E500023F07F4C07EB0C03A3F57C5300F000400C
:101E6000A3F1FE0392F0000F00F0B38095F0000F95
:101E700000F077802DE901494FEA11404FEA1446FE
:101E800021EA004800FB06FC24EA064708FB06F6A8
:101E900007FB08F800FB07F718EB06484CEB164C5D
:101EA0004FEA124B18EB07484FEA15464CEB174028
:101EB00022EA0B4E0BFB06FC25EA06470EFB06F654
:101EC00007FB0EFE0BFB07F71EEB064E4CEB164C0A
:101ED0004FF000061EEB074E4CEB174B18EB0B08B0
:101EE00040F1000018EB0E0B58EB000840F1000029
:101EF0008F1A4FF000013CBFC943661B14BFB5EBFE
:101F0000040C00213CBFC943F61B4FEA17444EEABC
:101F10008E0E27EA04454FEA1C4704FB07622CEAB1
:101F2000074C05FB07F70CFB05F604FB0CFC16EB56
:101F3000074642EB174216EB0C4642EB1C421BEBEA
:101F4000060658EB0202414146EA9E0601D5BDE86D
:101F50000189B619524141EB0101A3F10103BDE82A
:101F600001894FEA14454FEA114724EA054621EA60
:101F7000074C05FB07F406FB07F70CFB06F105FB16
:101F80000CFC11EB074144EB17444FEA124711EBED
:101F90000C4144EB1C4422EA074C05FB07F206FB0C
:101FA00007F70CFB06F605FB0CFC16EB074642EBAD
:101FB000174216EB0C4642EB1C456A1854F100011F
:101FC00048BF7047B619524141EB0101A3F101032B
:101FD000704795F0000F37D04FEA11424FEA14478F
:101FE00021EA024624EA074C02FB07F106FB07F749
:101FF0000CFB06F402FB0CFC14EB074441EB17410D
:102000004FEA154714EB0C4441EB1C4125EA074C01
:1020100002FB07F506FB07F70CFB06F602FB0CFCC0
:1020200016EB074645EB174516EB0C4645EB1C42F5
:10203000121951F1000148BF7047B619524141EBE6
:102040000101A3F1010370474FEA14454FEA11471C
:1020500024EA054621EA074C05FB07F106FB07F7D2
:102060000CFB06F24FF0000605FB0CFC12EB0742DE
:1020700041EB174112EB0C4251EB1C4148BF70473A
:10208000921841EB0101A3F1010370471FB5002134
:102090000090012001900720CDE902016946024825
:1020A00000F04AF91FBD000018010020464910B594
:1020B0004A6822F440324A604A6843681A434A60D8
:1020C00001684A6822F480724A6001684A680369BC
:1020D00042EA03224A6001684A6822F040724A607C
:1020E00001684A6883681A434A6001688A6822F472
:1020F00000628A6001688A68C3681A438A60816ADC
:102100006FF07062D14201688A6822F070628A6062
:1021100001688A680CD0836A1A438A6001688A68F9
:1021200022F040528A6001688A68C36A1A4301E05B
:1021300022F040528A6001688A6822F002028A60B6
:1021400001688A68037E42EA43028A6090F82010A0
:10215000002901684A680FD042F400624A600168B1
:102160004A6822F460424A6001684A68174C436A30
:1021700004EB43331A4301E022F400624A60016831
:10218000CA6A22F47002CA620168CA6A838B104C60
:1021900004EB03531A43CA6201688A6822F400728E
:1021A0008A6001688A6890F8303042EA43228A6087
:1021B00001688A6822F480628A6001688A684069DE
:1021C00042EA8020886010BD0023014000E0FFFF4C
:1021D0000000F0FFFEE700002DE9F0472DED0A8B2F
:1021E000F0EE408AB0EE608A31EE68BA71EEC89ABD
:1021F000F0EE63AAB0EE43CA2BEE0B1AF0EE62BA11
:10220000B0EE42AA09EEA91A11EE100A08F098FFE2
:1022100041EC100B03F058FA51EC100B08F06AF97E
:1022200009EE100A89EE0A0A10EE100A09F098F871
:1022300089EE2B0ADFED390A441C41F1000520EE3E
:10224000200A10EE100A09F08BF822462B46FEF702
:10225000B2F81FFA80F92046294608F09FFF00EEE9
:10226000100ADFF8BC80CBEE00BA00EE100A89EE4F
:1022700080BA00EE100AD8E90A01CCEE009A08F004
:102280008DFF00EE100A00273E4620EE2A9A3CE021
:1022900088EE8A0A10EE100A08F052FF41EC100B8B
:1022A00003F0A2F951EC100B08F0F8FF88EE0A0ACF
:1022B000C8E9020110EE100A08F042FF41EC100BD1
:1022C00003F092F951EC100B08F0E8FF89EE2A0AAE
:1022D000C8E9040110EE100A08F032FF41EC100BBF
:1022E00003F082F951EC100B08F0D8FFC8E908019F
:1022F0001FFA89F000F017F839EE299A78EEAB8AC8
:1023000038EE0B8A7F1C46F10006E01B75EB0600D9
:10231000BED2BDEC0A8BBDE8F087000000247449F2
:102320005800002070474FF0804100224A624A6AFC
:102330008242FCD37047000078B50024009490F8E6
:102340003C20012A19D0012280F83C200A6807238A
:102350000568092A13D9EE680A3A02EB4202934053
:102360009E43EE600B788A680A3B03EB43039A4076
:102370000368DD682A43DA6010E0022078BD2E6928
:1023800002EB420293409E432E610B788A6803EB76
:1023900043039A4003681D692A431A614A681F2350
:1023A000072A13D205686E6B521E02EB820293401D
:1023B0009E436E630B790A885B1E92B203EB830324
:1023C0009A4003685D6B2A435A6327E005680D2A2B
:1023D00012D22E6BD21F02EB820293409E432E63D9
:1023E0000B790A88DB1F92B203EB83039A400368E0
:1023F0001D6B2A431A6311E0EE6A0D3A02EB82026A
:1024000093409E43EE620B790A880D3B92B203EB38
:1024100083039A400368DD6A2A43DA62164B056833
:10242000144A9D4206D10D68122D03D1556845F41A
:102430008005556005689D4218D10B68102B01D0AE
:10244000112B13D1536843F400035360096810291A
:102450000CD10A490A4A0968B1FBF2F101EB81018A
:10246000490000E0491E00910029FBD180F83C4062
:10247000002078BD0023014000200140E40000203E
:1024800040420F000068C06C704770B504004FF008
:10249000000503D0206C002610B107E0012070BDBC
:1024A000204600F01DF8666484F83C60206CC0068D
:1024B00010D4206C20F4885040F0020020642046A4
:1024C000FFF7F4FD6664206C20F0020040F001008C
:1024D000206400E0012584F83C60284670BD0000BF
:1024E00010B586B0044614216846FEF775F8114908
:1024F000206888421CD110480021026842F4807292
:102500000260006800F4807005900B48143802687F
:1025100042F004020260006800F0040005903020E0
:1025200000900320CDE901016946044800F050F90C
:1025300006B010BD002001404438024000080240AF
:102540002DE9F041044600680D4681684FF0000710
:1025500049050BD58068C00508D5206C40F02000E7
:10256000206484F83C700120BDE8F08100F010FA8E
:10257000064613E0681C11D025B100F009FA801B53
:10258000A8420BD920680068800707D4206C40F06F
:102590000400206484F83C700320E5E720680068AC
:1025A0008007E7D521686FF012000860206C40F4C6
:1025B000007020642068816811F0405F13D1217E93
:1025C00089B9C16A11F4700F02D0806840050AD43D
:1025D000206C20F480702064206CC00403D4206C34
:1025E00040F0010020640020BEE7000018B5002183
:1025F000009190F83C20012A07D0012280F83C206D
:1026000002689368DB0702D011E0022018BD9368CE
:1026100043F001039360244A244B1268B2FBF3F2A7
:1026200002EB420200E0521E0092002AFBD1026837
:102630009368DB072ED0036C40F20164A34343F49C
:102640008073036453685B0505D5036C23F4005362
:1026500043F480530364036CDB0404D5436C23F020
:102660000603436400E0416480F83C1010496FF0B9
:102670002203136049680068C90602D00D498842E8
:1026800010D1816811F0405F0CD1816841F0804128
:10269000816007E0016C41F010010164416C41F080
:1026A00001014164002018BDE400002040420F00F9
:1026B000002301400020014090F83C1001290CD07B
:1026C000012180F83C1001688A6822F001028A60CA
:1026D00001688968C90702D007E002207047016CD1
:1026E00021F4885141F001010164002180F83C107F
:1026F000084670472DE9F0410446876D00F048F91F
:10270000064694F835000025022806D08020606532
:1027100084F834500120BDE8F0812068016821F080
:10272000160101602068416921F080014161206C3F
:1027300008B9A06C20B12068016821F0080101608F
:102740002068016821F0010101600CE000F020F92F
:10275000801B052807D920206065032084F83500F8
:1027600084F83450D7E720680068C007EED194F8A9
:102770005C103F208840B860012084F8350084F860
:1027800034500020C7E790F83510022903D080218B
:10279000416501207047052180F835100068016807
:1027A00021F00101016000207047000070B504466F
:1027B00000F0EEF80546601C02D00448007804449E
:1027C00000F0E6F8401BA042FAD370BDD80000200C
:1027D0002DE9F84FDFF890A10022012403254FF0E6
:1027E0000F090AF1040BAAF1040E00BF0B6804FAEA
:1027F00002F63340B3426ED10F7907F00307012F81
:1028000001D0022F16D187684FEA420805FA08FC6A
:1028100027EA0C07D1F80CC00CFA08FC4CEA070CAC
:10282000C0F808C04768B7430E79C6F30016964053
:102830003E4346600E79F643B6070AD0C6684FEAB3
:10284000420C05FA0CF7BE438F6807FA0CF73743C2
:10285000C7600E7906F00306022E10D1D60800EBF1
:102860008608D8F8206057074FEAD76C09FA0CF7AA
:10287000BE430F6907FA0CF73743C8F820700668A3
:102880004FEA420C05FA0CF7BE430F7907F0030735
:1028900007FA0CF7374307604E6816F4403F5CD0E8
:1028A000324E376847F480473760366822F00307B6
:1028B00006F4804600962E4E07EB060CDCF80868FE
:1028C00097074FEA177809FA08F7BE43294FB8422D
:1028D00002D1002710E040E0274FB84201D1012784
:1028E0000AE0264FB84201D1022705E0244FB84242
:1028F00001D1032700E0072707FA08F73743CCF890
:102900000878DAF800605746D1F804C09E435FEAC1
:10291000CC2C00D51E433E60DBF800605F46D1F84A
:1029200004C09E435FEA8C2C00D51E433E60DEF857
:1029300000607746D1F804C09E435FEA8C3C00D526
:102940001E433E60084F083F3E68D1F804C09E43D6
:102950005FEACC3C00D51E433E60521C102AFFF4B7
:1029600045AFBDE8F88F0000083C01404438024004
:102970000030014000000240000402400008024014
:10298000000C02400AB1816170470904FBE70000B6
:102990000148806870470000D80000200248816824
:1029A0000278114481607047D80000200B4810B5B0
:1029B000016841F400710160016841F480610160C7
:1029C000016841F480710160032000F06FF80F206E
:1029D00000F006F800F024F8002010BD003C024092
:1029E00070B50D4D04464FF47A712878B1FBF0F0C4
:1029F0000A490968B1FBF0F000F016FB48B9102C49
:102A000007D200222146501E00F030F800206C60F2
:102A100070BD012070BD0000D8000020E40000203F
:102A20000A4808B5016841F480410160006800F47B
:102A3000804000900548001F016841F0805101600E
:102A4000006800F08050009008BD0000443802404B
:102A5000002809DB00F01F0201219140400980009D
:102A600000F1E020C0F8001170470000F0B40E4BF8
:102A70001B680C46C3F30223C3F10705042D00D9DC
:102A80000425191D072901D2002300E0DB1E0126C1
:102A900006FA05F1491E214099409E40761E1640D7
:102AA0003143F0BC02F047B80CED00E0064900F0FD
:102AB000070208684FF6FF03184040EA0220034A65
:102AC00010430860704700000CED00E00000FA05BC
:102AD0002DE9F0470E46050065D0DFF81481D8F8DF
:102AE0000000F7B200F00700B04207D288F800708B
:102AF000D8F8000000F00700B04254D128683D4CDF
:102B0000810712D5400703D5206840F4E0502060CB
:102B10002878000703D5206840F4604020602068D2
:102B2000A96820F0F000084320602878C0072DD065
:102B3000304968680839012812D0022813D00328C8
:102B400011D00968890700292DDA216821F00301D5
:102B500001432160FFF71CFF814641F2883A0EE0F5
:102B600009688903EFE709688901ECE7FFF710FFBF
:102B7000A0EB0901514502D90320BDE8F087206888
:102B8000696800F00C00B0EB810FEFD1D8F80010AD
:102B9000404601F00701B14207D90770006800F014
:102BA0000700B04201D00120E7E72878400705D5AB
:102BB0002068E96820F4E050084320602878000786
:102BC00006D52068296920F4604040EAC1002060F1
:102BD00000F038F82168084AC1F30311515CC8407D
:102BE0000649086006480068FFF7FAFE0020C4E7BF
:102BF000003C02400838024078B50008E40000209C
:102C0000DC0000200448054900680968044AC1F353
:102C10008221515CC8407047E4000020083802401F
:102C200088B500080448054900680968044AC1F3EA
:102C30004231515CC8407047E4000020083802402F
:102C400088B50008154810B5006810F00C0214484B
:102C500013D01449042A0FD0082A0ED10F4C241F78
:102C60002268236802F03F025B0207D52068C0F3A8
:102C70008810A0FB010106E0084610BD2168C1F3E1
:102C80008811A1FB00010023FDF71EFB2168C1F3A1
:102C90000141491C4900B0FBF1F010BD0838024069
:102CA0000024F40040787D012DE9F84F04006ED037
:102CB0002078DFF86093C007A9F104054AD009F134
:102CC00004000168C1F38101012908D00068C0F344
:102CD000810002280AD1D9F80000400206D52868F0
:102CE000800337D560680028E1D033E06068B0F534
:102CF000803F10D0B0F5A02F286810D020F480308D
:102D00002860286820F4802028606068A8B1FFF758
:102D10003FFE06460DE0286840F48030F4E740F4BA
:102D200080202860F7E700BFFFF732FE801B642891
:102D300073D828688003F7D50CE0FFF729FE064614
:102D400005E000BFFFF724FE801B6428F0D8286848
:102D50008003F7D42078DFF8C08280074FF0000AA4
:102D60003ED5AC48001D016811F00C0F08D000687A
:102D7000C0F3810002280BD1D9F80000400207D42B
:102D80002868800716D5E068012800D112E03CE1F0
:102D9000E068B8B10120C8F80000FFF7F9FD064669
:102DA00005E000BFFFF7F4FD801B0228C0D82868AB
:102DB0008007F7D52868216920F0F80040EAC100B3
:102DC00028600DE0C8F800A0FFF7E2FD064604E029
:102DD000FFF7DEFD801B02281FD828688007F7D484
:102DE0002078000722D58B4E8C486169703671B10E
:102DF00001210160FFF7CCFD074604E0FFF7C8FDA5
:102E0000C01B022809D830688007F7D50EE0C0F84B
:102E100000A0FFF7BDFD074605E082E0FFF7B8FD23
:102E2000C01B02287DD830688007F7D4207840077F
:102E300068D5DFF8E0B100270BF13C0BDBF80000B0
:102E4000C0000BD4DBF8001041F08051CBF800102B
:102E5000DBF80000012700F080500090704E3068D1
:102E6000C00510D4306840F480703060FFF790FDEA
:102E7000009005E0FFF78CFD0099401A022850D819
:102E80003068C005F6D5634EA0686C3601280FD0B7
:102E90000528306810D020F001003060306820F044
:102EA00004003060A068B8B1FFF772FD00900FE039
:102EB000306840F00100F4E740F004003060F7E7CC
:102EC000FFF766FD0099411A41F28830814268D8C7
:102ED00030688007F4D50EE0FFF75AFD009007E058
:102EE000FFF756FD0099411A41F28830814258D8C7
:102EF00030688007F4D42FB1DBF8001021F0805146
:102F0000CBF80010A069D8B34249091D0968C1F384
:102F1000810102294CD00228504607D0C8F8600031
:102F200000E03EE0FFF734FD04463DE04746C8F8C8
:102F30006000FFF72DFD064605E000BFFFF728FD06
:102F4000801B02282DD828688001F7D4F4E90701F6
:102F50000843E168334A490802EB0141A26841EAAB
:102F600082110843217C40EA0160217D40EA017121
:102F7000C9F8001001203866FFF70AFD044606E094
:102F800045E000BFFFF704FD001B022809D82868B0
:102F90008001F7D53BE000BFFFF7FAFC001B0228D9
:102FA00002D90320BDE8F88F28688001F4D42EE010
:102FB0000128F7D0D9F80000E26900F480019142BD
:102FC00023D1226A00F03F0191421ED147F6C07121
:102FD000626A0140B1EB821F17D1A26A4FF0FF3342
:102FE00000F4403103EB5202B1EB024F0DD194F8E3
:102FF0002C2000F07061B1EB026F06D194F8301014
:1030000000F0E040B0EB017F01D00120CAE70020D2
:10301000C8E700000438024000004742800E4742E3
:10302000007000400000FFFF10B5401EB0F1807F2F
:1030300001D3012010BD4FF0E02460610F21601723
:1030400001F079FD0020A06107202061002010BD63
:103050007047704770B590F83C20012A32D00124A7
:1030600080F83C40022280F83D2003685A689D6841
:1030700022F070060A6832435A60134B02689A4283
:1030800014D0B2F1804F11D0104B9A420ED0104B99
:103090009A420BD00F4B9A4208D00F4B9A4205D060
:1030A0000E4B9A4202D00E4B9A4204D1496825F049
:1030B00080031943916080F83D40002180F83C1066
:1030C000084670BD022070BD0000014000040040B1
:1030D00000080040000C0040000401400040014096
:1030E0000018004010B5040003D094F83D0010B162
:1030F00007E0012010BD002084F83C00204600F0CD
:103100001FF8022084F83D00211D206801F0F6F927
:10311000012084F8460084F83E0084F83F0084F8DB
:10312000400084F8410084F8420084F8430084F8A9
:10313000440084F8450084F83D00002010BD0000E4
:1031400008B50168204881420FD12048016841F04C
:10315000010101600068002200F0010000901146AA
:103160001920FFF783FC192029E01848001FB1F14E
:10317000804F0BD0164A914210D1016841F00201F4
:103180000160006800F00200009008BD016841F095
:1031900001010160006800F00100F5E70D4A91426D
:1031A000F3D1016841F0040101600068002200F0E1
:1031B0000400009001211E20FFF758FC1E20BDE8EE
:1031C0000840FFF745BC00000000014044380240C1
:1031D000000400400008004090F83D10012901D093
:1031E00001207047022180F83D1000681149884293
:1031F00014D0B0F1804F11D00F4988420ED00F4942
:1032000088420BD00E49884208D00E49884205D02A
:103210000D49884202D00D49884204D1816801F0ED
:103220000701062903D0016841F001010160002077
:10323000704700000000014000040040000800400A
:10324000000C004000040140004001400018004014
:1032500090F83D10012901D001207047022180F82B
:103260003D100168CA6842F00102CA600068114955
:10327000884214D0B0F1804F11D00F4988420ED04F
:103280000E4988420BD00E49884208D00D49884229
:1032900005D00D49884202D00C49884204D181688A
:1032A00001F00701062903D0016841F00101016026
:1032B000002070470000014000040040000800406A
:1032C000000C004000040140004001400018004094
:1032D00070B5044690F83C000025012817D001265F
:1032E00084F83C60022084F83D002068826822F067
:1032F000770222F47F4282600868502838D00DDCC3
:1033000020284FD005DC90B3102811D14AE00220CC
:1033100070BD302846D040280AD13BE060282FD02D
:1033200070280DD0B0F5805F03D0B0F5005F12D0EB
:10333000012584F83D60002084F83C00284670BDDB
:10334000CB68D1E90121206801F049F92068816842
:1033500041F0770109E0CB68D1E90121206801F053
:103360003EF92068816841F480418160E1E719E01D
:10337000CA684968206801F007FA5021206806E011
:10338000CA684968206801F010FA6021206801F0DD
:1033900030F9CEE7CA684968206801F0F5F94021A4
:1033A0002068F4E7226801461046F0E7704770B5E0
:1033B0000446006801694FF00005C943890715D428
:1033C000C168C943890711D4E91E01610120207732
:1033D000206880698007204602D0FFF7E7FF04E0FD
:1033E00000F0C0F8204600F052F925772068016906
:1033F000C943490717D4C168C943490713D46FF0BB
:1034000004010161022020772068806910F4407F68
:10341000204602D0FFF7CAFF04E000F0A3F82046E0
:1034200000F035F9257720680169C943090716D4EA
:10343000C168C943090712D46FF008010161042073
:1034400020772068C0698007204602D0FFF7AEFFD2
:1034500004E000F087F8204600F019F9257720688D
:103460000169C943C90617D4C168C943C90613D441
:103470006FF010010161082020772068C06910F406
:10348000407F204602D0FFF791FF04E000F06AF889
:10349000204600F0FCF8257720680169C943C90778
:1034A00008D1C168C943C90704D1891E01612046FA
:1034B00000F052F920680169C943090609D4C168BE
:1034C000C943090605D46FF0800101612046FFF76A
:1034D000BFFD20680169C943490609D4C168C943D1
:1034E000490605D46FF040010161204600F035F92E
:1034F00020680169C94389060BD4C168C94389069C
:1035000007D46FF0200101612046BDE87040FFF74D
:10351000A0BD70BD10B586B0044614216846FDF705
:103520005BF80D492068884214D10C4800210268DC
:1035300042F002020260006800F0020005900320E1
:1035400000900220CDE90101CDE90310694604484D
:10355000FFF73EF906B010BD0004004030380240CD
:1035600000040240704770B5044690F83C00002605
:103570000D4601280FD0012084F83C006AB1042ACE
:103580001DD0082A2FD00C2A3FD00126002084F815
:103590003C00304670BD022070BD206801F032F85A
:1035A0002068816941F0080181612068816921F00A
:1035B00004018161206881692A69114311E0206852
:1035C00001F050F82068816941F400618161206850
:1035D000816921F480618161206881692A6941EAF9
:1035E00002218161D2E7206801F072F82068C16988
:1035F00041F00801C1612068C16921F00401C16185
:103600002068C1692A69114311E0206801F094F82B
:103610002068C16941F40061C1612068C16921F479
:103620008061C1612068C1692A6941EA0221C161E2
:10363000ACE710B5040003D094F83D0010B107E0EA
:10364000012010BD002084F83C00204600F01EF848
:10365000022084F83D00211D206800F04FFF01206A
:1036600084F8460084F83E0084F83F0084F8400067
:1036700084F8410084F8420084F8430084F8440050
:1036800084F8450084F83D00002010BD7047704765
:1036900010B50446022249B104290ED0082913D0DE
:1036A00094F84100012816D0012010BD94F83E0086
:1036B0000128F9D184F83E200FE094F83F0001285A
:1036C000F2D184F83F2008E094F840000128EBD1C3
:1036D00084F8402001E084F841200122206800F0B5
:1036E00071FF16492068164A884201D0904203D1E2
:1036F000436C43F4004343642068884213D0B0F124
:10370000804F10D00F4988420DD00F4988420AD00F
:103710000E49884207D0904205D00D49884202D018
:103720000C49884204D1816801F00701062903D0C1
:10373000016841F001010160002010BD000001405E
:10374000000401400004004000080040000C00405C
:1037500000400140001800407047704770477047B4
:10376000F8B5016804460868CA684B6910F00F0F85
:103770004FF0000559D003F0010602F4907737436B
:1037800065D0C10705D0D10503D5216C41F00101F9
:103790002164410705D5D90703D0216C41F002010E
:1037A0002164810705D5D90703D0216C41F00401BC
:1037B0002164010707D502F02001314303D0216CB9
:1037C00041F008012164216C00293AD0800604D51B
:1037D000900602D5204601F029F820684069216C46
:1037E000C0F38010090700D460B3204600F0F7FF53
:1037F00020684069400621D52068143050E8001F39
:1038000021F0400140E80012002AF5D1A06BA8B1D8
:103810006C490165A06BFEF7B6FF002811D0A06BC4
:10382000016D01B0BDE8F040084783060FD593064F
:103830000DD52046BDE8F84000F0F8BF2046FFF760
:103840008EFFF8BD2046FFF78AFF2564F8BD266B82
:103850002023012E79D1C60677D5D60675D50868FE
:10386000486800904869400640D5A16B08684068E8
:103870000004000CEAD0A28D8242E7D9E085C86935
:10388000B0F5807F2DD020680C3050E8001F21F467
:10389000807140E80012002AF5D12068143050E809
:1038A000001F21F0010140E80012002AF5D1206834
:1038B000143050E8001F21F0400140E80012002AB7
:1038C000F5D184F83E30256320680C3050E8001FA5
:1038D00021F0100140E80012002AF5D1A06BFEF79C
:1038E00009FFA08DE18D401A81B229E0A08DE18D04
:1038F000401A81B2E08D0028A8D00029A6D0206807
:103900000C3050E8002F22F4907240E80026002E80
:10391000F5D12068143050E8002F22F0010240E871
:103920000026002EF5D184F83E30256320680C3047
:1039300050E8002F22F0100240E80023002BF5D1C0
:103940002046FFF70BFFF8BDFFE705062BD5150650
:1039500029D594F83D002128F5D1A068B0F5805F05
:1039600001D12069B0B1206A411C21622168007830
:103970004860E08C401E0004000CE084E3D1206825
:10398000C16821F08001C1602068C16841F0400138
:10399000C160D8E7206A0088C0F308004860206A48
:1039A000801C2062E5E74006CDD55006CBD5CA681D
:1039B000204622F04002CA6084F83D3000F0CFF883
:1039C000C1E70000CF47000870B5040004D094F8A8
:1039D0003D00002510B106E0012070BD84F83C5088
:1039E000204600F023F8242084F83D002068C168B8
:1039F00021F40051C160204600F078FF2068016981
:103A000021F4904101612068416921F02A0141615E
:103A10002068C16841F40051C1602564202084F809
:103A20003D0084F83E00002070BD000010B586B057
:103A3000044614216846FCF7CFFD184920688842E7
:103A400029D117480021026842F010020260006884
:103A500000F01000059012481438026842F001028C
:103A60000260006800F0010005904FF4C060009013
:103A70000220CDE90101032003900720049069464C
:103A80000848FEF7A5FE002211462520FEF7EEFFAE
:103A90002520FEF7DDFF06B010BD0000001001403C
:103AA0004438024000000240704700002DE9F8430E
:103AB000044690F83D001F4616460D4620284CD17E
:103AC000C5B1BEB194F83C00012846D0012084F86D
:103AD0003C004FF00008C4F84080212084F83D00ED
:103AE000FEF756FFA6848146E684A068B0F5805FA5
:103AF00003D004E00120BDE8F883206928B12E46F8
:103B00005FF0000584F83C800EE00026FAE7802193
:103B1000204600F071FFA0B9AEB116F8010B216884
:103B20004860E08C401EE084E08C4B464FF0000281
:103B300000970028EBD14FF04001204600F05CFFD9
:103B400030B10320D7E735F8020BC0F30800E6E7F1
:103B5000202084F83D000020CDE70220CBE770470D
:103B6000FEE7000010B5394C2DED088B30EE608A71
:103B700094ED000AD4ED020A20EE08BA94ED080A8A
:103B800038EE400A20EE200A10EE100A07F0D8FAAC
:103B90009FED2F9B53EC192B06F09AFD06F0AAFC23
:103BA00008EE900AA06A07F0CBFA41EC1A0BE06825
:103BB00007F0C6FA53EC192B06F072FF53EC1A2BE0
:103BC00006F06EFF94ED010A41EC1A0B20EE080A94
:103BD00010EE100A07F0B4FA53EC192B06F060FF50
:103BE00041EC190B606A07F0ABFA53EC192B06F0A5
:103BF000B3FC53EC1A2B06F0AFFC06F07BFC3BEE5B
:103C0000280A00EE900A144930EE200A10EE100A3D
:103C1000884201DD64200AE0B5EEC00AF1EE10FA38
:103C200001D2002003E0BDEEC01A11EE100A01EE31
:103C3000100AB8EEC11A31EE400A84ED0A0A84ED8A
:103C4000088AC4ED090ABDEC088B10BD08000020ED
:103C5000333333333333D33F0000C842F0EE400AEE
:103C600090ED001AB7EE000AD0ED011A30EE410ACD
:103C700020EE210A01EE200A80ED010A70470000C3
:103C800080ED000A9FED020A80ED010A70470000F6
:103C9000000000002DE9F0472DED048BB0EE608AA6
:103CA000F0EE408AB0EE419A88EE280A10EE100A33
:103CB00007F056FB88EE090ADFED200A471C41F1A8
:103CC000000420EE200A10EE100A07F049FB3A46E5
:103CD0002346FCF770FB1FFA80F83846214607F0B0
:103CE0005DFA00EE100A00252E4688EE009A9FED40
:103CF000148ADFF8509018E088EE280A10EE100AB7
:103D000007F01EFA41EC100B01F06EFC51EC100BA9
:103D100007F0C4FAC9E906011FFA88F0FEF703FBB1
:103D200038EE098A6D1C46F10006781B74EB06001C
:103D3000E2D2BDEC048BBDE8F0870000002474499A
:103D400000000000580000202DE9F0472DED068B03
:103D500030EEC09AB0EE61AAF0EE419A29EE090A5F
:103D600010EE100A07F0ECF941EC100B01F0ACFC7E
:103D700051EC100B06F0BEFB08EE100A88EE290A83
:103D800010EE100A07F0ECFA88EE0A0ADFED1F0ABF
:103D9000471C41F1000420EE200A10EE100A07F043
:103DA000DFFA3A462346FCF706FB1FFA80F838464E
:103DB000214607F0F3F900EE100A00252E4689EEA1
:103DC000008ADFF84C9018E088EEA90A10EE100A7D
:103DD00007F0B6F941EC100B01F006FC51EC100BAA
:103DE00007F05CFAC9E906011FFA88F0FEF79BFAB2
:103DF00078EE888A6D1C46F10006781B74EB06008D
:103E0000E2D2BDEC068BBDE8F087000000247449C7
:103E1000580000207FB500241448009401940294B7
:103E200011490394C0E900148460012504610576FA
:103E300080F820400E49C0E90A14C561C46080F8CA
:103E400030404561FEF721FB08B172B6FEE70E2057
:103E5000CDE90005694602940448FEF76DFA002892
:103E600001D072B6FEE77FBD00200140180100209E
:103E70000100000FF0B587B014216846FCF7ACFBD9
:103E80001D480024016841F004010160016801F04F
:103E900004010591016841F001010160016801F030
:103EA00001010591016841F0020101600068134EB3
:103EB00000F002004FF400550590002229463046DC
:103EC000FEF760FD0E4F0022FF213846FEF75AFD37
:103ED00000950125CDE90154694630460394FEF76B
:103EE00077FCFF200090CDE90154694638460394E1
:103EF000FEF76EFC07B0F0BD30380240000802400B
:103F00000000024010B586B00024174800940194C8
:103F10000294039404941349059401600F21C0E9AD
:103F200001143221C0E9031444618461FFF7DAF817
:103F300008B172B6FEE74FF48050009069460A4817
:103F4000FFF7C6F908B172B6FEE7049404A9064863
:103F50000594FFF77FF8002801D072B6FEE706B09F
:103F600010BD0000000001406001002010B586B0C7
:103F700000241648009401940294039404944FF092
:103F80008041059401600F21C0E90114611EC0E960
:103F900003148461FFF7A6F808B172B6FEE74FF488
:103FA0008050009069460948FFF792F908B172B64F
:103FB000FEE7049404A905480594FFF74BF8002890
:103FC00001D072B6FEE706B010BD0000A8010020C7
:103FD00010B58EB000240794089409940A940B94A9
:103FE0001C2168460C94FCF7F7FA2248204901602E
:103FF0000721C0E901144FF47A71C0E90314846108
:10400000FFF770F808B172B6FEE74FF480500790E2
:1040100007A91848FFF75CF908B172B6FEE7154822
:10402000FFF707FB08B172B6FEE70B940BA9114826
:104030000C94FFF70FF808B172B6FEE76020CDE9E7
:1040400000040294082269460A480494FFF78BFA98
:1040500008B172B6FEE70C2269460648FFF783FAFC
:1040600008B172B6FEE70348FFF754FA0EB010BD70
:1040700000040040F001002010B586B0002417486D
:1040800000940194029403940494134905940160EC
:104090009F21C0E9011446F2A811C0E9031484610C
:1040A000FFF720F808B172B6FEE74FF48050009099
:1040B00069460A48FFF70CF908B172B6FEE70494A6
:1040C00004A906480594FEF7C5FF002801D072B682
:1040D000FEE706B010BD00000008004038020020D6
:1040E000FEE7FEE770477047FEF758BC10B594B086
:1040F00034216846FCF770FA14210DA8FCF76CFA1D
:1041000017480024016841F080510160006800F008
:10411000805012901348016841F4404101600068EA
:10412000069400F440401290022000900120039079
:10413000102004906846FEF7B7FD08B172B6FEE79E
:104140000F20CDE90D040F94109400210DA81194B7
:10415000FEF7BEFC002801D072B6FEE714B010BD19
:1041600040380240007000400248016841F470018C
:104170000160704788ED00E02DE9F041864E874CE4
:104180007088401C80B2708001287DD1844F854D9D
:10419000D7E90030D5E90012591A90411FDA0122FF
:1041A00004212046FEF7EEFB012204212046FEF703
:1041B000E9FB012204212046FEF7E4FB012208214D
:1041C0002046FEF7DFFB012208212046FEF7DAFB3E
:1041D000D5E90001401E41F1FF31C5E90001D5E9F3
:1041E0000010D7E90023891A98411FDA0022042120
:1041F0002046FEF7C7FB002204212046FEF7C2FB43
:10420000002204212046FEF7BDFB012208212046A2
:10421000FEF7B8FB012208212046FEF7B3FBD5E9E3
:104220000001401C41F10001C5E900015E4F5F4DF6
:10423000D7E90020D5E90031D21A884110DA0022EE
:1042400001212046FEF79EFB012202212046FEF7B7
:1042500099FBD5E90001401E41F1FF31C5E900019C
:104260000846D7E900122B68591A904112DA012248
:1042700011462046FEF786FB012202212046FEF76A
:1042800081FBD5E9000100E068E0401C41F100013C
:10429000C5E90001464F474DD7E90030D5E9001286
:1042A000591A904110DA002210212046FEF76AFBCD
:1042B000012220212046FEF765FBD5E90001401EC2
:1042C00041F1FF31C5E90001D5E90020D7E900132C
:1042D000511A984110DA012210212046FEF752FBB4
:1042E000012220212046FEF74DFBD5E90001401CAC
:1042F00041F10001C5E900012F4F304DD7E9002001
:10430000D5E90031D21A884110DA00224021204636
:10431000FEF738FB012280212046FEF733FBD5E96A
:104320000001401E41F1FF31C5E900010846D7E90F
:1043300000122B68591A904110DA012240212046C0
:10434000FEF720FB012280212046FEF71BFBD5E96A
:104350000001401C41F10001C5E9000170880428FA
:1043600015D1002202212046FEF70CFB0022082175
:104370002046FEF707FB002220212046FEF702FB25
:10438000002280212046FEF7FDFA00207080BDE863
:10439000F0410B48FFF70BB8CC00002000000240B2
:1043A00068000020900000206000002088000020AD
:1043B000700000209800002078000020800000207D
:1043C000600100202DE9F04F394C3A4D2DED028B64
:1043D00089B02078401CC0B2207003280DD1364926
:1043E000284605F069FF3548D5ED000A90ED000A32
:1043F000FFF7B8FB6060002020702F48006806F0CF
:104400009FFE06460F46286806F09AFE8B462C490A
:104410008246D1E9000106F0C1FE00EE100A2948EB
:1044200090ED008A20EE080A10EE100A06F088FED1
:10443000894625498046D1E9000106F0AFFE00EE2D
:10444000100A2248D0ED000A20EE200A10EE100AD1
:1044500006F076FE0D461E490446D1E9000106F03D
:104460009DFE00EE100A20EE080A10EE100A06F07B
:1044700067FE8DE8300F41EC100B16A153EC102BAA
:104480001B48CDE90667FBF7BBFF1948FCF753F85B
:1044900082B24FF47A7316491648FFF707FB09B04A
:1044A0001548BDEC028BBDE8F04FFEF780BF000061
:1044B000CC0000200000002004000020500000205C
:1044C00090000020A400002098000020A8000020F8
:1044D0008800002058252E32665A252E326659252E
:1044E0002E326648252E326642252E32660A00009C
:1044F000C40200208002002038020020F0B50268CB
:10450000254C264D264E274F274B4FF0804CA0427E
:1045100009D0604507D0A84205D0B04203D0B842C8
:1045200001D0984204D122F0700E4A6842EA0E028D
:10453000A0421BD0604519D0A84217D0B04215D078
:10454000B84213D0984211D0184DA8420ED0184D41
:10455000A8420BD0174DA84208D0174DA84205D04D
:10456000164DA84202D0164DA84203D122F4407540
:10457000CA682A434D6922F080022A4302608A6891
:10458000C2620A688262A04201D0984201D10969E0
:10459000016301214161F0BD0000014000040040C1
:1045A00000080040000C00400004014000400140B1
:1045B000004401400048014000180040001C004039
:1045C0000020004010B501F01F030121046A99404A
:1045D0008C430462016A9A401143016210BD10B518
:1045E000846842EA032224F47F440A43224382601F
:1045F00010BD826822F070020A4342F00701816018
:1046000070470000F0B5026A22F001020262036AFC
:1046100042688469124E24F073050C682C4323F021
:1046200002058B682B430D4DA84201D0B04205D145
:1046300023F00807CB683B4323F00403A84201D0D2
:10464000B04205D14D6922F4407215438A692A436C
:1046500042608461496841630362F0BD000001402B
:1046600000040140F0B5026A22F010020262026A00
:10467000436884690D6824F4E64444EA05248D689F
:1046800022F0200242EA05120F4D104EA84201D03E
:10469000B04206D1CF6822F0800242EA071222F02F
:1046A0004002A84201D0B04207D14D6923F44063D3
:1046B00043EA85038D6943EA850343608461496861
:1046C00081630262F0BD000000000140000401406F
:1046D000F0B5026A22F480720262026A4368C46919
:1046E00022F4007224F073050C68124E2C438D687E
:1046F00042EA05220E4DA84201D0B04206D1CF6851
:1047000022F4006242EA072222F48062A84201D029
:10471000B04207D14D6923F4405343EA05138D6934
:1047200043EA05134360C4614968C1630262F0BD96
:10473000000001400004014030B5026A22F48052BA
:104740000262046A4268C3690D6823F4E64343EADF
:1047500005238D6824F4005444EA0534084DA8422A
:1047600002D0084DA84204D14D6922F4804242EAA9
:1047700085124260C36149680164046230BD000073
:10478000000001400004014010B5036A046A24F0EF
:1047900001040462846924F0F00444EA021423F062
:1047A0000A020A438461026210BD10B5036A23F055
:1047B000100303628369046A23F4704343EA0232FC
:1047C00024F0A00343EA01118261016210BD10B51B
:1047D000806B0021C185C184FEF7C1FF10BD016857
:1047E0000C3151E8002F22F4907241E80023002B95
:1047F000F5D10168143151E8002F22F0010241E89F
:104800000023002BF5D1016B012909D101680C317E
:1048100051E8002F22F0100241E80023002BF5D1CF
:10482000202180F83E1000210163704708B590F800
:104830003E10222901D0022008BD82684FF4805327
:104840009A4201D1016921B1816A9A421BD04AB1D1
:104850000AE00268816A5268C2F308020A80816A2B
:10486000891C08E0026972B10268526802F07F0296
:104870000A70816A491C8162C18D491E0904090CB4
:10488000C18503D019E002685268F1E70168CA687F
:1048900022F02002CA600168CA6822F48072CA60ED
:1048A00001684A6922F001024A61202180F83E1025
:1048B000016B012903D0FFF7F7F8002008BD0021A4
:1048C000016301680C3151E8002F22F0100241E829
:1048D0000023002BF5D101680A68D20602D50A68C8
:1048E00049680091818DFEF739FFE6E770B504460F
:1048F00000680169E26821F44051114301612169B6
:10490000A068E26908436169114308432168CA68E5
:1049100049F20C639A430243CA6020684169A26964
:1049200021F440711143416131492068884202D02D
:104930003049884202D1FEF775F901E0FEF762F9CD
:10494000E2690023192164253226B2F5004F62681E
:1049500028D0A0FB0101930F9200FBF7B5FC0146A4
:10496000B0FBF5F06FF01802504301EB800006EB4E
:104970000010B0FBF5F000F0F002B1FBF5F002EB37
:104980000012B1FBF5F06FF01803584301EB800003
:1049900006EB0010B0FBF5F000F00F0021681044AA
:1049A000886070BDA0FB010192185B41FBF78CFC95
:1049B0000146B0FBF5F00201B1FBF5F06FF0180312
:1049C000584301EB800006EBC000B0FBF5F000F0AF
:1049D000F80002EB4002B1FBF5F0584301EB800018
:1049E00006EBC000B0FBF5F000F00700D6E70000D2
:1049F00000100140001401402DE9F041984617468F
:104A00000E460446069D27E0681C25D02DB1FDF713
:104A1000BFFFA0EB0800A8421ED920680C3050E868
:104A2000001F21F4D07140E80012002AF5D120685F
:104A3000143050E8001F21F0010140E80012002A64
:104A4000F5D1202084F83D0084F83E00002084F851
:104A50003C000320BDE8F0812068006836EA0000D1
:104A600004D00020B842CFD00020F3E70120F9E7BE
:104A700030B5174887B001684A68174C154DA068D3
:104A80002A54401CA06048680A281BD116480DF122
:104A9000080C124B124A13498CE80F0013491448B2
:104AA000CDE90001134B144A1449284605F0B2FA27
:104AB00013490870002001462954401CC0B2302818
:104AC000FAD3A16007B00248BDE83040FEF748BE07
:104AD00080020020E8000020CC000020C40000205C
:104AE0005400002050000020B8000020C00000202A
:104AF000BC000020B4000020B0000020AC0000206A
:104B0000C8000020FEE703B401984100009850EA75
:104B1000C12018BF04204A0D18BF40F0010040F228
:104B2000FF72B2EB515F08BF40F00200012808BFDE
:104B3000052002B070470907090E002804DB00F1C8
:104B4000E02080F80014704700F00F0000F1E02032
:104B500080F8141D7047000030B52DED048B81B036
:104B6000B0EE408AF0EE608A6A4651EC180B04F011
:104B700073FF00989FED329B7E300090002821DC6F
:104B800053EC192B51EC180B05F0FAFE1AD000214A
:104B900040F608004FF00000044651EC180B05F0F9
:104BA000A9FC08EE100A40F6080004EA00014FF0E4
:104BB0000000B5EEC08AF1EE10FA04BF0220FBF748
:104BC0003AFD2DE00098FF2830DB002108464FF029
:104BD000000000F4400553EC192B51EC180B06F0C3
:104BE0005DF88CBF002401240220FBF724FD9FED1B
:104BF000168A4DB1002C0CBF4FF400004FF480001A
:104C0000A84218BF9FED118A042108464FF000000A
:104C1000002C01BFB1EE480A01B0BDEC048B30BDE1
:104C2000B0EE480A01B0BDEC048B30BD51EC180B5E
:104C300005F060FC01B000EE100ABDEC048B30BD45
:104C400000000000000000000000807FFFFF7F7F69
:104C500070B59B482DED020B2DED068B079D25F0C1
:104C60000044A04218DC9748844202DC0AD106982E
:104C700040B19DED060BBDEC068B02B0BDE8704067
:104C800000F0F6BD002DCCBF9FED8F0B9FED900B7C
:104C9000BDEC068B02B070BD8F48A04215DD8F4879
:104CA000A042D8BF4FF0FF3458DD9DED060B51EC0C
:104CB000100BFFF728FF042808BF00F00DFE9DED44
:104CC000060BBDEC068B02B070BD9DED060B51ECE2
:104CD000100B04F0B3FECDE9060181489FED828BF5
:104CE000A0423CDD8248A0421FDD00249FED82AB44
:104CF0009DED060B53EC1A2B51EC100B05F02CFC20
:104D00009DED060B41EC190B53EC1A2B51EC100BDB
:104D100005F0C6FE53EC182B06F028F953EC192BBE
:104D200005F0D6FCCDE9060149E09DED060B012416
:104D300053EC182B51EC100B05F00EFC9DED060BFF
:104D400041EC190B53EC182B51EC100B06F00EF93B
:104D500053EC192B05F0BCFCCDE906012FE06848A7
:104D6000A0421FDD02249FED689B9DED060B53ECD6
:104D7000192B51EC100B05F093FE53EC182B05F09A
:104D8000EBFB9DED060B41EC180B53EC192B51EC92
:104D9000100B06F0EBF853EC182B05F099FCCDE95D
:104DA00006010CE09DED060B032453EC102B9FED48
:104DB000580B51EC100B05F08BFCCDE906019DED75
:104DC000060B53EC102B51EC100B05F069FE41EC77
:104DD000180B53EC182B05F063FE41EC190B4E48F1
:104DE0000621B0EE490AF0EE690A784400F0A9FC09
:104DF00053EC182B51EC100B05F052FE41EC180B44
:104E00004648B0EE490AF0EE690A0521784400F000
:104E100098FC53EC192B51EC100B05F041FE41ECC2
:104E2000100B51EC180B53EC102B002C0EDA05F084
:104E300093FB9DED061B53EC112B05F031FE9DED10
:104E4000061B53EC112B05F0B9FF35E005F084FB90
:104E50009DED061B53EC112B05F022FE41EC100BCF
:104E60002F48784400EBC40090ED001B51EC100B70
:104E700053EC112B06F07AF89DED061B53EC112B29
:104E800006F074F841EC100B2648784400EBC4009F
:104E900090ED001B51EC100B53EC112B05F08EFF25
:104EA00041EC100B002DA2BFBDEC068B02B070BD13
:104EB00051EC100B05F012FB41EC100B01E7000068
:104EC000000010440000F07F182D4454FB21F93FEE
:104ED000182D4454FB21F9BF0000DC3F0000203EA8
:104EE0000000F33F00000000000000000000F03F61
:104EF0000000E63F0000000000000000000000404D
:104F00000080034000000000000000000000F83FA7
:104F1000000000000000F0BF42680000F8670000D9
:104F2000826700003A67000070B56B4E2DED040BF0
:104F30002DED028B82B0DDF81CC0DDE905235C425B
:104F40002CF000411C4341EAD474049D22F000403F
:104F5000B44205D86C422C4340EAD474B4420BD915
:104F60009DED061B9DED040B02B0BDEC028B04B061
:104F7000BDE8704000F086BCACF14054A4F17F6401
:104F80001C430BD0022404EAAC7444EAD2740543F7
:104F90009FED538B9FED542B07D015E09DED040B37
:104FA00051EC100B00F0C2FC42E0002C11BF012CB0
:104FB0009DED040B02B0BDEC028B04BF04B070BDCC
:104FC000022C38D0032C3BD00B439FED491B9FEDA7
:104FD0004A0B0AD0B14218D1B04209D121F0804128
:104FE00020F08040079105900FE0002A15DA10E0CC
:104FF000434B7B44002C08BF93ED000B0DD0012CDC
:1050000010D0022C17D0032C1AD0B0421DD1002A88
:1050100003DAB0EE410AF0EE610A02B0BDEC028B99
:1050200004B070BD93ED000B51EC100B05F056FA77
:1050300041EC100BF1E7B0EE480AF0EE680AECE73D
:10504000B0EE420AF0EE620AE7E7401A00153C288B
:10505000C8BF8DED000B19DCBCF1000FBEBF10F115
:105060003C0F9FED290B8DED000B0FDB9DED060B2B
:1050700053EC102B9DED040B51EC100B05F028FBAD
:1050800004F0DCFC00F052FCCDE90001002C08BF6C
:105090009DED000BC1D0012C10D0022C9FED1C0BFC
:1050A00053EC102B9DED000B51EC100B0DD005F0C7
:1050B0005DFF53EC182B05F059FFB9E7019880F01C
:1050C000004001909DED000BA7E705F04FFF53EC6A
:1050D000182B05F073FEABE70000F07F0000000026
:1050E000182D4454FB210940182D4454FB2109C0BC
:1050F000182D4454FB21F9BF182D4454FB21F93FCE
:105100006A660000000000000000000000000000CF
:10511000075C143326A6A13C30B583B00446FBF7E8
:1051200085FA9FED090B05468DED000B0022214607
:105130006846FBF7D1FC2846FBF77DFA9DED000B96
:1051400003B030BD000000000000000000000000BF
:1051500030B540F2FF742DED048BF0EE608A18EE4E
:10516000901A85B0B0EE408A9FED2B9B05468DEDE1
:10517000008B34EA115147D053EC192B51EC180B2A
:1051800005F0FEFB40D02A4651EC180B06F05FF903
:1051900041EC180B18EE900A8DED008B34EA10509C
:1051A0001CD053EC192B51EC180B05F0E9FB2BD15B
:1051B0000220FBF740FA00F08FFB10EE901A18EE79
:1051C000900A8DED020B8DED008B61F31E000390B4
:1051D0009DED020B05B0BDEC048B30BD0220FBF74A
:1051E0002AFA00F069FB10EE901A18EE900A8DED85
:1051F000020B8DED008B61F31E0003909DED020B01
:1052000005B0BDEC048B30BD05B0B0EE480AF0EE41
:10521000680ABDEC048B30BD0000000000000000F7
:1052200070B5D94B00242DED020B2DED108BDDE96F
:105230001010984205DA20F000429A4201D809D1B4
:1052400041B19DED100BBDEC108B02B0BDE870407C
:1052500000F00EBBB0F5801F26DA11430BD00028FA
:1052600013DA0120FBF7E7F9BDEC108B02B0BDE8C3
:10527000704000F011BB0220FBF7DDF900F0E0FA0E
:1052800051EC100B05F02AF99EE06FF035049FED0C
:10529000C00B53EC102B9DED100B51EC100B05F0D7
:1052A000FFFBCDE91001084604EB2051C0F31304C5
:1052B000B948A1F2FF31204400F4801080F07F62F1
:1052C00082F04052224301EB20559FEDB50B119225
:1052D00053EC102B9DED100B51EC100B05F046FE1E
:1052E00041EC180BA01CC0F313009FEDAFDB9FED4A
:1052F000B0EBB14E7E4403286CD296ED000B51EC1E
:10530000180B53EC102B05F03BFB1DD1002D01BFFA
:1053100096ED000BBDEC108B02B070BD284605F079
:105320006BFB41EC180B53EC1D2B05F0B9FB41EC6A
:10533000190B53EC1E2B51EC180B05F0B1FB53EC81
:10534000192B05F009F93FE09FED9D0B51EC180B6F
:1053500053EC102B05F0A4FB9FED9B1B53EC112B82
:1053600005F02CFD41EC190B53EC182B51EC180BEC
:1053700005F096FB53EC192B05F092FB41EC190B51
:10538000002D04BF53EC192B51EC180B1AD02846F2
:1053900005F032FB41EC1A0B53EC1D2B05F080FBA2
:1053A00053EC192B05F00AFD53EC182B05F0DEFD2C
:1053B00041EC180B53EC1E2B51EC1A0B05F070FB53
:1053C00053EC182B05F0D2FDBDEC108B02B041EC74
:1053D000100B70BD9FED7E0B51EC180B53EC102B96
:1053E00005F0BAF841EC100B51EC180B53EC102BF4
:1053F00005F06EF941EC190B284605F0FDFA41EC79
:105400001B0B53EC192B51EC190B05F049FB41EC2C
:105410001A0B714853EC1A2B261851EC1A0B05F095
:105420003FFB41EC1F0B6D48C4F1510404F5D72438
:10543000B0EE4F0AF0EE6F0A0321784400F081F9D4
:1054400053EC1F2B51EC100B05F02AFB41EC1C0B0D
:105450006348B0EE4F0AF0EE6F0A0421784400F082
:1054600070F953EC1A2B51EC100B05F019FB344377
:1054700053EC1C2B05F070F841EC1C0B002C4CDDA0
:105480009FED510B51EC180B53EC102B05F008FB62
:1054900053EC182B05F004FB41EC1A0B55B353ECFD
:1054A0001D2B51EC1B0B05F0FBFA41EC1D0B53ECD3
:1054B0001C2B51EC1A0B05F04FF853EC192B05F08F
:1054C000EFFA53EC1D2B05F047F853EC1A2B05F0BF
:1054D00075FC53EC182B05F049FD41EC180B53EC0F
:1054E0001E2B51EC1B0B05F0DBFA53EC182B05F0CF
:1054F0003DFD69E753EC1C2B51EC1A0B05F02CF821
:1055000053EC192B05F0CCFA53EC1A2B05F056FC92
:1055100053EC182B05F052FC56E735B353EC1D2B1A
:1055200051EC1B0B05F0BCFA41EC1A0B53EC1C2B95
:1055300051EC180B05F01AFD53EC192B05F0B0FADD
:1055400053EC1A2B05F012FD53EC182B05F00EFD51
:1055500041EC180B53EC1E2B51EC1B0B05F0A0FA81
:1055600053EC182B05F002FD2EE753EC1C2B51ECED
:10557000180B05F0FBFC53EC192B05F091FA53ECDA
:10558000182B05F01BFC1FE70000F07F0000000057
:105590000000000000005043645F090000000000AC
:1055A000000000000000F03F763C7935EF39EA3D1D
:1055B0000000E0FE422EE63F6863000000000000AD
:1055C000555555555555D53F000000000000E03FAA
:1055D000000000000000004086EBF9FF526100006F
:1055E000486100000000000010B52DED020B2DED0C
:1055F000088B84B09DED0C0B51EC100B05F084FB77
:1056000041EC180B9DED0C0B53EC182B51EC100BCF
:1056100005F0ACFC41EC190B0D989FED290B10F037
:10562000004F53EC102B51EC190B9FED21AB9FED6C
:1056300022BB0ED005F0F8F90ED953EC1B2B51EC20
:10564000190B05F02BFB1CD214E000BF41EC180B2A
:1056500017E005F0E9F906D253EC1A2B51EC180BC0
:1056600005F084FCF2E753EC1B2B51EC190B05F011
:1056700015FB06D853EC1A2B51EC180B04F06CFFF9
:10568000E4E78DED028B9DED0C0B18EE901A10EEF9
:10569000900A8DED000B61F31E0003909DED020B4F
:1056A00004B0BDEC088B02B010BD0000000000008B
:1056B000000000000000F03F000000000000E03F9C
:1056C000000000000000E0BF00B52DED048BB0EE3F
:1056D000409AF0EE609A83B051EC190B05F07AFB1A
:1056E00041EC180B18EE100A18EE901A8DED008B95
:1056F000002818BF0120084320F00040C0F17F605F
:1057000000F1E040C00F14D019EE101A19EE900A03
:105710008DED009B002918BF0121084320F00040B7
:10572000C0F17F6000F1E040C00F04BF0120FAF734
:1057300082FFB0EE480A03B0F0EE680ABDEC048BBD
:1057400000BD70B504462DED028B4D1E00EBC5006B
:10575000B0EE408AF0EE608A90ED000B35F0060066
:1057600017D053EC182B51EC100B05F099F941ECC4
:10577000100B6D1E04EBC50090ED001B51EC100BDF
:1057800053EC112B04F0E8FE41EC100B35F0060051
:10579000E7D1022D36D0042D1CD0062D1CBFBDEC48
:1057A000028B70BD53EC182B51EC100B05F078F9FF
:1057B00094ED0A1B53EC112B04F0CEFE53EC182B86
:1057C00005F06EF994ED081B53EC112B04F0C4FEA8
:1057D00041EC100B53EC182B51EC100B05F060F959
:1057E00094ED061B53EC112B04F0B6FE53EC182B72
:1057F00005F056F994ED040B53EC102B04F0ACFEBD
:1058000041EC100B53EC182B51EC100B05F048F940
:1058100094ED021B53EC112B04F09EFE53EC182B5D
:1058200005F03EF994ED001B53EC112B04F094FEAF
:10583000BDEC028B41EC100B70BD000000000000BD
:105840009FED070B10B553EC102B9FED070B51ECA0
:10585000100B04F03DFF41EC100B10BD00000000E8
:105860000000000000000000000000000000F03F09
:1058700010B553EC102B51EC100B04F06DFE41EC05
:10588000100B10BD10B553EC112B51EC100B04F0A4
:1058900063FE41EC100B10BD9FED050B10B553ECF2
:1058A000102B51EC100B04F013FF41EC100B10BD4A
:1058B00000000000000000009FED050B10B553EC48
:1058C000102B51EC100B05F0EBF841EC100B10BD58
:1058D00000000000000000709FED050B10B553ECB8
:1058E000102B51EC100B05F0DBF841EC100B10BD48
:1058F000000000000000001010B5044691ED000B00
:10590000FFF72AF984ED000A10BD10B5044690EDAA
:10591000000B0846FFF71CFC84ED000B10BD30386F
:105920000A2801D2012070470020704710B541ECD1
:10593000100BFFF78DF951EC100B10BD70B52DED6C
:10594000108BB0EE64EAF0EE449AF0EE63EAB0EE4B
:1059500043FAB0EE61AAF0EE41AAB0EE60DAF0EEE2
:1059600040DA9FEDFEBA7DEE828A3DEE228A002467
:105970003DEEE80A7DEE480A20EE000A00EEA00A9D
:1059800010EE100A05F0DCFB41EC100BFFF79CFE5B
:1059900051EC100B04F0AEFD09EE100AF4EEE8DA5B
:1059A000EF4DF1EE10FA7CDDB4EEC8DAF1EE10FA4C
:1059B00077DBF4EEE8AAF1EE10FA39DBB4EEC8AA10
:1059C000F1EE10FA34DDFF20F0EE4E4AB0EE4B4A15
:1059D000F0EE6E3AB0EE4F3AF0EE482AB0EE682A9A
:1059E000F0EE4A1AB0EE6A1AF0EE4D0AB0EE6D0A09
:1059F00002F0F8F92C68002000EE104AF0EE4E4A52
:105A0000F0EE6E3AB8EE400AB0EE4F3AF0EE482AA9
:105A1000B0EE682A89EE80BAF0EE4A1AB0EE6A1A41
:105A2000F0EE4D0AB0EE6D0AB0EE4B4A02F0DAF934
:105A3000F4EEE8AAF1EE10FA6ED2B4EEC8AAF1EED6
:105A400010FA69DB78EE09BAFF20F0EE4E4AB0EEAC
:105A50004B4AF0EE6E3AB0EE4F3AF0EE482AB0EE16
:105A6000682AF0EE6B1AB0EE681AF0EE4D0AB0EE4E
:105A70006D0A02F0B7F92868F0EE6B0A0444FF20C3
:105A8000F0EE4E4AB0EE4B4AF0EE6E3AB0EE4F3AC0
:105A9000F0EE482AB0EE682AF0EE4A1AB0EE6A1A22
:105AA00000E05AE1B0EE680A02F01AFD2868F0EE54
:105AB0006B1A044400EE104A0020F0EE4E4AB8EE95
:105AC000400AF0EE6E3AB0EE4F3AF0EE482A89EE18
:105AD00080BAB0EE682AB0EE681AF0EE4D0AB0EE69
